{
  "_format": "hh-sol-artifact-1",
  "contractName": "FileManager",
  "sourceName": "contracts/FileManager.sol",
  "abi": [
    {
      "anonymous": false,
      "inputs": [
        {
          "indexed": false,
          "internalType": "uint256",
          "name": "fileId",
          "type": "uint256"
        },
        {
          "indexed": true,
          "internalType": "address",
          "name": "grantee",
          "type": "address"
        }
      ],
      "name": "AccessGranted",
      "type": "event"
    },
    {
      "anonymous": false,
      "inputs": [
        {
          "indexed": false,
          "internalType": "uint256",
          "name": "fileId",
          "type": "uint256"
        },
        {
          "indexed": true,
          "internalType": "address",
          "name": "revoked",
          "type": "address"
        }
      ],
      "name": "AccessRevoked",
      "type": "event"
    },
    {
      "anonymous": false,
      "inputs": [
        {
          "indexed": false,
          "internalType": "uint256",
          "name": "fileId",
          "type": "uint256"
        },
        {
          "indexed": true,
          "internalType": "address",
          "name": "owner",
          "type": "address"
        },
        {
          "indexed": false,
          "internalType": "string",
          "name": "cid",
          "type": "string"
        }
      ],
      "name": "FileUploaded",
      "type": "event"
    },
    {
      "inputs": [
        {
          "internalType": "uint256",
          "name": "fileId",
          "type": "uint256"
        },
        {
          "internalType": "address",
          "name": "user",
          "type": "address"
        }
      ],
      "name": "canAccess",
      "outputs": [
        {
          "internalType": "bool",
          "name": "",
          "type": "bool"
        }
      ],
      "stateMutability": "view",
      "type": "function"
    },
    {
      "inputs": [],
      "name": "fileCount",
      "outputs": [
        {
          "internalType": "uint256",
          "name": "",
          "type": "uint256"
        }
      ],
      "stateMutability": "view",
      "type": "function"
    },
    {
      "inputs": [
        {
          "internalType": "uint256",
          "name": "fileId",
          "type": "uint256"
        }
      ],
      "name": "getFile",
      "outputs": [
        {
          "internalType": "string",
          "name": "cid",
          "type": "string"
        },
        {
          "internalType": "address",
          "name": "owner",
          "type": "address"
        }
      ],
      "stateMutability": "view",
      "type": "function"
    },
    {
      "inputs": [
        {
          "internalType": "uint256",
          "name": "fileId",
          "type": "uint256"
        },
        {
          "internalType": "address",
          "name": "requester",
          "type": "address"
        }
      ],
      "name": "getFileCID",
      "outputs": [
        {
          "internalType": "string",
          "name": "",
          "type": "string"
        }
      ],
      "stateMutability": "view",
      "type": "function"
    },
    {
      "inputs": [
        {
          "internalType": "uint256",
          "name": "fileId",
          "type": "uint256"
        }
      ],
      "name": "getFileOwner",
      "outputs": [
        {
          "internalType": "address",
          "name": "",
          "type": "address"
        }
      ],
      "stateMutability": "view",
      "type": "function"
    },
    {
      "inputs": [],
      "name": "getMyFiles",
      "outputs": [
        {
          "internalType": "uint256[]",
          "name": "",
          "type": "uint256[]"
        }
      ],
      "stateMutability": "view",
      "type": "function"
    },
    {
      "inputs": [
        {
          "internalType": "uint256",
          "name": "fileId",
          "type": "uint256"
        },
        {
          "internalType": "address",
          "name": "user",
          "type": "address"
        }
      ],
      "name": "grantAccess",
      "outputs": [],
      "stateMutability": "nonpayable",
      "type": "function"
    },
    {
      "inputs": [
        {
          "internalType": "uint256",
          "name": "fileId",
          "type": "uint256"
        },
        {
          "internalType": "address",
          "name": "user",
          "type": "address"
        }
      ],
      "name": "revokeAccess",
      "outputs": [],
      "stateMutability": "nonpayable",
      "type": "function"
    },
    {
      "inputs": [
        {
          "internalType": "string",
          "name": "cid",
          "type": "string"
        }
      ],
      "name": "uploadFile",
      "outputs": [],
      "stateMutability": "nonpayable",
      "type": "function"
    }
  ],
  "bytecode": "0x608060405234801561001057600080fd5b506114d7806100206000396000f3fe608060405234801561001057600080fd5b50600436106100935760003560e01c806390e3df7d1161006657806390e3df7d14610121578063b65c5c7414610151578063d5b2d1ed14610181578063d9a5ec1b146101b1578063e37ffc30146101cd57610093565b80632bfda3131461009857806343953519146100c957806365dd152c146100e757806390a4b0df14610103575b600080fd5b6100b260048036038101906100ad9190610b99565b6101e9565b6040516100c0929190610c97565b60405180910390f35b6100d1610308565b6040516100de9190610cd6565b60405180910390f35b61010160048036038101906100fc9190610d1d565b61030e565b005b61010b6104b6565b6040516101189190610e1b565b60405180910390f35b61013b60048036038101906101369190610b99565b61054b565b6040516101489190610e3d565b60405180910390f35b61016b60048036038101906101669190610d1d565b6105d0565b6040516101789190610e58565b60405180910390f35b61019b60048036038101906101969190610d1d565b61075d565b6040516101a89190610e95565b60405180910390f35b6101cb60048036038101906101c69190610d1d565b61080d565b005b6101e760048036038101906101e29190610f15565b6109b5565b005b60606000826002548110610232576040517f08c379a000000000000000000000000000000000000000000000000000000000815260040161022990610fae565b60405180910390fd5b60008060008681526020019081526020016000209050806000018160010160009054906101000a900473ffffffffffffffffffffffffffffffffffffffff1681805461027d90610ffd565b80601f01602080910402602001604051908101604052809291908181526020018280546102a990610ffd565b80156102f65780601f106102cb576101008083540402835291602001916102f6565b820191906000526020600020905b8154815290600101906020018083116102d957829003601f168201915b50505050509150935093505050915091565b60025481565b8160008082815260200190815260200160002060010160009054906101000a900473ffffffffffffffffffffffffffffffffffffffff1673ffffffffffffffffffffffffffffffffffffffff163373ffffffffffffffffffffffffffffffffffffffff16146103b2576040517f08c379a00000000000000000000000000000000000000000000000000000000081526004016103a99061107a565b60405180910390fd5b8260025481106103f7576040517f08c379a00000000000000000000000000000000000000000000000000000000081526004016103ee90610fae565b60405180910390fd5b600160008086815260200190815260200160002060020160008573ffffffffffffffffffffffffffffffffffffffff1673ffffffffffffffffffffffffffffffffffffffff16815260200190815260200160002060006101000a81548160ff0219169083151502179055508273ffffffffffffffffffffffffffffffffffffffff167f3c3a9147a1fc73dd51a32f4d10c43d457e8cb826eb6f35cac6349eb965ba82b4856040516104a89190610cd6565b60405180910390a250505050565b6060600160003373ffffffffffffffffffffffffffffffffffffffff1673ffffffffffffffffffffffffffffffffffffffff16815260200190815260200160002080548060200260200160405190810160405280929190818152602001828054801561054157602002820191906000526020600020905b81548152602001906001019080831161052d575b5050505050905090565b6000816002548110610592576040517f08c379a000000000000000000000000000000000000000000000000000000000815260040161058990610fae565b60405180910390fd5b60008084815260200190815260200160002060010160009054906101000a900473ffffffffffffffffffffffffffffffffffffffff16915050919050565b6060826002548110610617576040517f08c379a000000000000000000000000000000000000000000000000000000000815260040161060e90610fae565b60405180910390fd5b60008085815260200190815260200160002060020160008473ffffffffffffffffffffffffffffffffffffffff1673ffffffffffffffffffffffffffffffffffffffff16815260200190815260200160002060009054906101000a900460ff166106b6576040517f08c379a00000000000000000000000000000000000000000000000000000000081526004016106ad906110e6565b60405180910390fd5b60008085815260200190815260200160002060000180546106d690610ffd565b80601f016020809104026020016040519081016040528092919081815260200182805461070290610ffd565b801561074f5780601f106107245761010080835404028352916020019161074f565b820191906000526020600020905b81548152906001019060200180831161073257829003601f168201915b505050505091505092915050565b60008260025481106107a4576040517f08c379a000000000000000000000000000000000000000000000000000000000815260040161079b90610fae565b60405180910390fd5b60008085815260200190815260200160002060020160008473ffffffffffffffffffffffffffffffffffffffff1673ffffffffffffffffffffffffffffffffffffffff16815260200190815260200160002060009054906101000a900460ff1691505092915050565b8160008082815260200190815260200160002060010160009054906101000a900473ffffffffffffffffffffffffffffffffffffffff1673ffffffffffffffffffffffffffffffffffffffff163373ffffffffffffffffffffffffffffffffffffffff16146108b1576040517f08c379a00000000000000000000000000000000000000000000000000000000081526004016108a89061107a565b60405180910390fd5b8260025481106108f6576040517f08c379a00000000000000000000000000000000000000000000000000000000081526004016108ed90610fae565b60405180910390fd5b600080600086815260200190815260200160002060020160008573ffffffffffffffffffffffffffffffffffffffff1673ffffffffffffffffffffffffffffffffffffffff16815260200190815260200160002060006101000a81548160ff0219169083151502179055508273ffffffffffffffffffffffffffffffffffffffff167f125883b94692baebecad9f111ed97ffa626523bbbadc6b0ef85ee1b56b9e52d5856040516109a79190610cd6565b60405180910390a250505050565b600060025490506000806000838152602001908152602001600020905083838260000191826109e59291906112ec565b50338160010160006101000a81548173ffffffffffffffffffffffffffffffffffffffff021916908373ffffffffffffffffffffffffffffffffffffffff16021790555060018160020160003373ffffffffffffffffffffffffffffffffffffffff1673ffffffffffffffffffffffffffffffffffffffff16815260200190815260200160002060006101000a81548160ff021916908315150217905550600160003373ffffffffffffffffffffffffffffffffffffffff1673ffffffffffffffffffffffffffffffffffffffff16815260200190815260200160002082908060018154018082558091505060019003906000526020600020016000909190919091505560026000815480929190610afc906113eb565b91905055503373ffffffffffffffffffffffffffffffffffffffff167f99b8ce58620b0bedd8d8a6cfaa1e94bf3431f0f117fa12c36043e43d5468ad6b838686604051610b4b9392919061146f565b60405180910390a250505050565b600080fd5b600080fd5b6000819050919050565b610b7681610b63565b8114610b8157600080fd5b50565b600081359050610b9381610b6d565b92915050565b600060208284031215610baf57610bae610b59565b5b6000610bbd84828501610b84565b91505092915050565b600081519050919050565b600082825260208201905092915050565b60005b83811015610c00578082015181840152602081019050610be5565b60008484015250505050565b6000601f19601f8301169050919050565b6000610c2882610bc6565b610c328185610bd1565b9350610c42818560208601610be2565b610c4b81610c0c565b840191505092915050565b600073ffffffffffffffffffffffffffffffffffffffff82169050919050565b6000610c8182610c56565b9050919050565b610c9181610c76565b82525050565b60006040820190508181036000830152610cb18185610c1d565b9050610cc06020830184610c88565b9392505050565b610cd081610b63565b82525050565b6000602082019050610ceb6000830184610cc7565b92915050565b610cfa81610c76565b8114610d0557600080fd5b50565b600081359050610d1781610cf1565b92915050565b60008060408385031215610d3457610d33610b59565b5b6000610d4285828601610b84565b9250506020610d5385828601610d08565b9150509250929050565b600081519050919050565b600082825260208201905092915050565b6000819050602082019050919050565b610d9281610b63565b82525050565b6000610da48383610d89565b60208301905092915050565b6000602082019050919050565b6000610dc882610d5d565b610dd28185610d68565b9350610ddd83610d79565b8060005b83811015610e0e578151610df58882610d98565b9750610e0083610db0565b925050600181019050610de1565b5085935050505092915050565b60006020820190508181036000830152610e358184610dbd565b905092915050565b6000602082019050610e526000830184610c88565b92915050565b60006020820190508181036000830152610e728184610c1d565b905092915050565b60008115159050919050565b610e8f81610e7a565b82525050565b6000602082019050610eaa6000830184610e86565b92915050565b600080fd5b600080fd5b600080fd5b60008083601f840112610ed557610ed4610eb0565b5b8235905067ffffffffffffffff811115610ef257610ef1610eb5565b5b602083019150836001820283011115610f0e57610f0d610eba565b5b9250929050565b60008060208385031215610f2c57610f2b610b59565b5b600083013567ffffffffffffffff811115610f4a57610f49610b5e565b5b610f5685828601610ebf565b92509250509250929050565b7f46696c6520646f6573206e6f7420657869737400000000000000000000000000600082015250565b6000610f98601383610bd1565b9150610fa382610f62565b602082019050919050565b60006020820190508181036000830152610fc781610f8b565b9050919050565b7f4e487b7100000000000000000000000000000000000000000000000000000000600052602260045260246000fd5b6000600282049050600182168061101557607f821691505b60208210810361102857611027610fce565b5b50919050565b7f4e6f742066696c65206f776e6572000000000000000000000000000000000000600082015250565b6000611064600e83610bd1565b915061106f8261102e565b602082019050919050565b6000602082019050818103600083015261109381611057565b9050919050565b7f4163636573732064656e69656400000000000000000000000000000000000000600082015250565b60006110d0600d83610bd1565b91506110db8261109a565b602082019050919050565b600060208201905081810360008301526110ff816110c3565b9050919050565b600082905092915050565b7f4e487b7100000000000000000000000000000000000000000000000000000000600052604160045260246000fd5b60008190508160005260206000209050919050565b60006020601f8301049050919050565b600082821b905092915050565b6000600883026111a27fffffffffffffffffffffffffffffffffffffffffffffffffffffffffffffffff82611165565b6111ac8683611165565b95508019841693508086168417925050509392505050565b6000819050919050565b60006111e96111e46111df84610b63565b6111c4565b610b63565b9050919050565b6000819050919050565b611203836111ce565b61121761120f826111f0565b848454611172565b825550505050565b600090565b61122c61121f565b6112378184846111fa565b505050565b5b8181101561125b57611250600082611224565b60018101905061123d565b5050565b601f8211156112a05761127181611140565b61127a84611155565b81016020851015611289578190505b61129d61129585611155565b83018261123c565b50505b505050565b600082821c905092915050565b60006112c3600019846008026112a5565b1980831691505092915050565b60006112dc83836112b2565b9150826002028217905092915050565b6112f68383611106565b67ffffffffffffffff81111561130f5761130e611111565b5b6113198254610ffd565b61132482828561125f565b6000601f8311600181146113535760008415611341578287013590505b61134b85826112d0565b8655506113b3565b601f19841661136186611140565b60005b8281101561138957848901358255600182019150602085019450602081019050611364565b868310156113a657848901356113a2601f8916826112b2565b8355505b6001600288020188555050505b50505050505050565b7f4e487b7100000000000000000000000000000000000000000000000000000000600052601160045260246000fd5b60006113f682610b63565b91507fffffffffffffffffffffffffffffffffffffffffffffffffffffffffffffffff8203611428576114276113bc565b5b600182019050919050565b82818337600083830152505050565b600061144e8385610bd1565b935061145b838584611433565b61146483610c0c565b840190509392505050565b60006040820190506114846000830186610cc7565b8181036020830152611497818486611442565b905094935050505056fea2646970667358221220d5d489d9c8234a700313e25e7cf3ec55fa09eb36115b7df2d4e94bbfdf8ebf0d64736f6c63430008140033",
  "linkReferences": {},
  "deployedLinkReferences": {}
}