{
  "_format": "hh-sol-artifact-1",
  "contractName": "FileManager",
  "sourceName": "contracts/FileManager.sol",
  "abi": [
    {
      "anonymous": false,
      "inputs": [
        {
          "indexed": false,
          "internalType": "uint256",
          "name": "fileId",
          "type": "uint256"
        },
        {
          "indexed": true,
          "internalType": "address",
          "name": "grantee",
          "type": "address"
        }
      ],
      "name": "AccessGranted",
      "type": "event"
    },
    {
      "anonymous": false,
      "inputs": [
        {
          "indexed": false,
          "internalType": "uint256",
          "name": "fileId",
          "type": "uint256"
        },
        {
          "indexed": true,
          "internalType": "address",
          "name": "revoked",
          "type": "address"
        }
      ],
      "name": "AccessRevoked",
      "type": "event"
    },
    {
      "anonymous": false,
      "inputs": [
        {
          "indexed": false,
          "internalType": "uint256",
          "name": "fileId",
          "type": "uint256"
        },
        {
          "indexed": true,
          "internalType": "address",
          "name": "owner",
          "type": "address"
        },
        {
          "indexed": false,
          "internalType": "string",
          "name": "cid",
          "type": "string"
        }
      ],
      "name": "FileUploaded",
      "type": "event"
    },
    {
      "inputs": [
        {
          "internalType": "uint256",
          "name": "fileId",
          "type": "uint256"
        },
        {
          "internalType": "address",
          "name": "user",
          "type": "address"
        }
      ],
      "name": "canAccess",
      "outputs": [
        {
          "internalType": "bool",
          "name": "",
          "type": "bool"
        }
      ],
      "stateMutability": "view",
      "type": "function"
    },
    {
      "inputs": [],
      "name": "fileCount",
      "outputs": [
        {
          "internalType": "uint256",
          "name": "",
          "type": "uint256"
        }
      ],
      "stateMutability": "view",
      "type": "function"
    },
    {
      "inputs": [
        {
          "internalType": "uint256",
          "name": "fileId",
          "type": "uint256"
        }
      ],
      "name": "getAccessList",
      "outputs": [
        {
          "internalType": "address[]",
          "name": "",
          "type": "address[]"
        }
      ],
      "stateMutability": "view",
      "type": "function"
    },
    {
      "inputs": [
        {
          "internalType": "uint256",
          "name": "fileId",
          "type": "uint256"
        }
      ],
      "name": "getFile",
      "outputs": [
        {
          "internalType": "string",
          "name": "cid",
          "type": "string"
        },
        {
          "internalType": "address",
          "name": "owner",
          "type": "address"
        }
      ],
      "stateMutability": "view",
      "type": "function"
    },
    {
      "inputs": [
        {
          "internalType": "uint256",
          "name": "fileId",
          "type": "uint256"
        },
        {
          "internalType": "address",
          "name": "requester",
          "type": "address"
        }
      ],
      "name": "getFileCID",
      "outputs": [
        {
          "internalType": "string",
          "name": "",
          "type": "string"
        }
      ],
      "stateMutability": "view",
      "type": "function"
    },
    {
      "inputs": [
        {
          "internalType": "uint256",
          "name": "fileId",
          "type": "uint256"
        }
      ],
      "name": "getFileOwner",
      "outputs": [
        {
          "internalType": "address",
          "name": "",
          "type": "address"
        }
      ],
      "stateMutability": "view",
      "type": "function"
    },
    {
      "inputs": [],
      "name": "getMyFiles",
      "outputs": [
        {
          "internalType": "uint256[]",
          "name": "",
          "type": "uint256[]"
        }
      ],
      "stateMutability": "view",
      "type": "function"
    },
    {
      "inputs": [
        {
          "internalType": "uint256",
          "name": "fileId",
          "type": "uint256"
        },
        {
          "internalType": "address",
          "name": "user",
          "type": "address"
        }
      ],
      "name": "grantAccess",
      "outputs": [],
      "stateMutability": "nonpayable",
      "type": "function"
    },
    {
      "inputs": [
        {
          "internalType": "uint256",
          "name": "fileId",
          "type": "uint256"
        },
        {
          "internalType": "address",
          "name": "user",
          "type": "address"
        }
      ],
      "name": "revokeAccess",
      "outputs": [],
      "stateMutability": "nonpayable",
      "type": "function"
    },
    {
      "inputs": [
        {
          "internalType": "string",
          "name": "cid",
          "type": "string"
        }
      ],
      "name": "uploadFile",
      "outputs": [],
      "stateMutability": "nonpayable",
      "type": "function"
    }
  ],
  "bytecode": "0x608060405234801561001057600080fd5b50611945806100206000396000f3fe608060405234801561001057600080fd5b506004361061009e5760003560e01c8063b65c5c7411610066578063b65c5c741461015c578063d5b2d1ed1461018c578063d9a5ec1b146101bc578063e37ffc30146101d8578063f31bb177146101f45761009e565b80632bfda313146100a357806343953519146100d457806365dd152c146100f257806390a4b0df1461010e57806390e3df7d1461012c575b600080fd5b6100bd60048036038101906100b89190610f27565b610224565b6040516100cb929190611025565b60405180910390f35b6100dc610343565b6040516100e99190611064565b60405180910390f35b61010c600480360381019061010791906110ab565b610349565b005b61011661069c565b60405161012391906111a9565b60405180910390f35b61014660048036038101906101419190610f27565b610731565b60405161015391906111cb565b60405180910390f35b610176600480360381019061017191906110ab565b6107b6565b60405161018391906111e6565b60405180910390f35b6101a660048036038101906101a191906110ab565b610943565b6040516101b39190611223565b60405180910390f35b6101d660048036038101906101d191906110ab565b6109f3565b005b6101f260048036038101906101ed91906112a3565b610b9b565b005b61020e60048036038101906102099190610f27565b610dfe565b60405161021b91906113ae565b60405180910390f35b6060600082600254811061026d576040517f08c379a00000000000000000000000000000000000000000000000000000000081526004016102649061141c565b60405180910390fd5b60008060008681526020019081526020016000209050806000018160010160009054906101000a900473ffffffffffffffffffffffffffffffffffffffff168180546102b89061146b565b80601f01602080910402602001604051908101604052809291908181526020018280546102e49061146b565b80156103315780601f1061030657610100808354040283529160200191610331565b820191906000526020600020905b81548152906001019060200180831161031457829003601f168201915b50505050509150935093505050915091565b60025481565b8160008082815260200190815260200160002060010160009054906101000a900473ffffffffffffffffffffffffffffffffffffffff1673ffffffffffffffffffffffffffffffffffffffff163373ffffffffffffffffffffffffffffffffffffffff16146103ed576040517f08c379a00000000000000000000000000000000000000000000000000000000081526004016103e4906114e8565b60405180910390fd5b826002548110610432576040517f08c379a00000000000000000000000000000000000000000000000000000000081526004016104299061141c565b60405180910390fd5b60008085815260200190815260200160002060020160008473ffffffffffffffffffffffffffffffffffffffff1673ffffffffffffffffffffffffffffffffffffffff16815260200190815260200160002060009054906101000a900460ff1661069657600160008086815260200190815260200160002060020160008573ffffffffffffffffffffffffffffffffffffffff1673ffffffffffffffffffffffffffffffffffffffff16815260200190815260200160002060006101000a81548160ff02191690831515021790555060008085815260200190815260200160002060040160008473ffffffffffffffffffffffffffffffffffffffff1673ffffffffffffffffffffffffffffffffffffffff16815260200190815260200160002060009054906101000a900460ff1661064757600080858152602001908152602001600020600301839080600181540180825580915050600190039060005260206000200160009091909190916101000a81548173ffffffffffffffffffffffffffffffffffffffff021916908373ffffffffffffffffffffffffffffffffffffffff160217905550600160008086815260200190815260200160002060040160008573ffffffffffffffffffffffffffffffffffffffff1673ffffffffffffffffffffffffffffffffffffffff16815260200190815260200160002060006101000a81548160ff0219169083151502179055505b8273ffffffffffffffffffffffffffffffffffffffff167f3c3a9147a1fc73dd51a32f4d10c43d457e8cb826eb6f35cac6349eb965ba82b48560405161068d9190611064565b60405180910390a25b50505050565b6060600160003373ffffffffffffffffffffffffffffffffffffffff1673ffffffffffffffffffffffffffffffffffffffff16815260200190815260200160002080548060200260200160405190810160405280929190818152602001828054801561072757602002820191906000526020600020905b815481526020019060010190808311610713575b5050505050905090565b6000816002548110610778576040517f08c379a000000000000000000000000000000000000000000000000000000000815260040161076f9061141c565b60405180910390fd5b60008084815260200190815260200160002060010160009054906101000a900473ffffffffffffffffffffffffffffffffffffffff16915050919050565b60608260025481106107fd576040517f08c379a00000000000000000000000000000000000000000000000000000000081526004016107f49061141c565b60405180910390fd5b60008085815260200190815260200160002060020160008473ffffffffffffffffffffffffffffffffffffffff1673ffffffffffffffffffffffffffffffffffffffff16815260200190815260200160002060009054906101000a900460ff1661089c576040517f08c379a000000000000000000000000000000000000000000000000000000000815260040161089390611554565b60405180910390fd5b60008085815260200190815260200160002060000180546108bc9061146b565b80601f01602080910402602001604051908101604052809291908181526020018280546108e89061146b565b80156109355780601f1061090a57610100808354040283529160200191610935565b820191906000526020600020905b81548152906001019060200180831161091857829003601f168201915b505050505091505092915050565b600082600254811061098a576040517f08c379a00000000000000000000000000000000000000000000000000000000081526004016109819061141c565b60405180910390fd5b60008085815260200190815260200160002060020160008473ffffffffffffffffffffffffffffffffffffffff1673ffffffffffffffffffffffffffffffffffffffff16815260200190815260200160002060009054906101000a900460ff1691505092915050565b8160008082815260200190815260200160002060010160009054906101000a900473ffffffffffffffffffffffffffffffffffffffff1673ffffffffffffffffffffffffffffffffffffffff163373ffffffffffffffffffffffffffffffffffffffff1614610a97576040517f08c379a0000000000000000000000000000000000000000000000000000000008152600401610a8e906114e8565b60405180910390fd5b826002548110610adc576040517f08c379a0000000000000000000000000000000000000000000000000000000008152600401610ad39061141c565b60405180910390fd5b600080600086815260200190815260200160002060020160008573ffffffffffffffffffffffffffffffffffffffff1673ffffffffffffffffffffffffffffffffffffffff16815260200190815260200160002060006101000a81548160ff0219169083151502179055508273ffffffffffffffffffffffffffffffffffffffff167f125883b94692baebecad9f111ed97ffa626523bbbadc6b0ef85ee1b56b9e52d585604051610b8d9190611064565b60405180910390a250505050565b60006002549050600080600083815260200190815260200160002090508383826000019182610bcb92919061175a565b50338160010160006101000a81548173ffffffffffffffffffffffffffffffffffffffff021916908373ffffffffffffffffffffffffffffffffffffffff16021790555060018160020160003373ffffffffffffffffffffffffffffffffffffffff1673ffffffffffffffffffffffffffffffffffffffff16815260200190815260200160002060006101000a81548160ff02191690831515021790555060018160040160003373ffffffffffffffffffffffffffffffffffffffff1673ffffffffffffffffffffffffffffffffffffffff16815260200190815260200160002060006101000a81548160ff02191690831515021790555080600301339080600181540180825580915050600190039060005260206000200160009091909190916101000a81548173ffffffffffffffffffffffffffffffffffffffff021916908373ffffffffffffffffffffffffffffffffffffffff160217905550600160003373ffffffffffffffffffffffffffffffffffffffff1673ffffffffffffffffffffffffffffffffffffffff16815260200190815260200160002082908060018154018082558091505060019003906000526020600020016000909190919091505560026000815480929190610da190611859565b91905055503373ffffffffffffffffffffffffffffffffffffffff167f99b8ce58620b0bedd8d8a6cfaa1e94bf3431f0f117fa12c36043e43d5468ad6b838686604051610df0939291906118dd565b60405180910390a250505050565b6060816002548110610e45576040517f08c379a0000000000000000000000000000000000000000000000000000000008152600401610e3c9061141c565b60405180910390fd5b600080848152602001908152602001600020600301805480602002602001604051908101604052809291908181526020018280548015610eda57602002820191906000526020600020905b8160009054906101000a900473ffffffffffffffffffffffffffffffffffffffff1673ffffffffffffffffffffffffffffffffffffffff1681526020019060010190808311610e90575b5050505050915050919050565b600080fd5b600080fd5b6000819050919050565b610f0481610ef1565b8114610f0f57600080fd5b50565b600081359050610f2181610efb565b92915050565b600060208284031215610f3d57610f3c610ee7565b5b6000610f4b84828501610f12565b91505092915050565b600081519050919050565b600082825260208201905092915050565b60005b83811015610f8e578082015181840152602081019050610f73565b60008484015250505050565b6000601f19601f8301169050919050565b6000610fb682610f54565b610fc08185610f5f565b9350610fd0818560208601610f70565b610fd981610f9a565b840191505092915050565b600073ffffffffffffffffffffffffffffffffffffffff82169050919050565b600061100f82610fe4565b9050919050565b61101f81611004565b82525050565b6000604082019050818103600083015261103f8185610fab565b905061104e6020830184611016565b9392505050565b61105e81610ef1565b82525050565b60006020820190506110796000830184611055565b92915050565b61108881611004565b811461109357600080fd5b50565b6000813590506110a58161107f565b92915050565b600080604083850312156110c2576110c1610ee7565b5b60006110d085828601610f12565b92505060206110e185828601611096565b9150509250929050565b600081519050919050565b600082825260208201905092915050565b6000819050602082019050919050565b61112081610ef1565b82525050565b60006111328383611117565b60208301905092915050565b6000602082019050919050565b6000611156826110eb565b61116081856110f6565b935061116b83611107565b8060005b8381101561119c5781516111838882611126565b975061118e8361113e565b92505060018101905061116f565b5085935050505092915050565b600060208201905081810360008301526111c3818461114b565b905092915050565b60006020820190506111e06000830184611016565b92915050565b600060208201905081810360008301526112008184610fab565b905092915050565b60008115159050919050565b61121d81611208565b82525050565b60006020820190506112386000830184611214565b92915050565b600080fd5b600080fd5b600080fd5b60008083601f8401126112635761126261123e565b5b8235905067ffffffffffffffff8111156112805761127f611243565b5b60208301915083600182028301111561129c5761129b611248565b5b9250929050565b600080602083850312156112ba576112b9610ee7565b5b600083013567ffffffffffffffff8111156112d8576112d7610eec565b5b6112e48582860161124d565b92509250509250929050565b600081519050919050565b600082825260208201905092915050565b6000819050602082019050919050565b61132581611004565b82525050565b6000611337838361131c565b60208301905092915050565b6000602082019050919050565b600061135b826112f0565b61136581856112fb565b93506113708361130c565b8060005b838110156113a1578151611388888261132b565b975061139383611343565b925050600181019050611374565b5085935050505092915050565b600060208201905081810360008301526113c88184611350565b905092915050565b7f46696c6520646f6573206e6f7420657869737400000000000000000000000000600082015250565b6000611406601383610f5f565b9150611411826113d0565b602082019050919050565b60006020820190508181036000830152611435816113f9565b9050919050565b7f4e487b7100000000000000000000000000000000000000000000000000000000600052602260045260246000fd5b6000600282049050600182168061148357607f821691505b6020821081036114965761149561143c565b5b50919050565b7f4e6f742066696c65206f776e6572000000000000000000000000000000000000600082015250565b60006114d2600e83610f5f565b91506114dd8261149c565b602082019050919050565b60006020820190508181036000830152611501816114c5565b9050919050565b7f4163636573732064656e69656400000000000000000000000000000000000000600082015250565b600061153e600d83610f5f565b915061154982611508565b602082019050919050565b6000602082019050818103600083015261156d81611531565b9050919050565b600082905092915050565b7f4e487b7100000000000000000000000000000000000000000000000000000000600052604160045260246000fd5b60008190508160005260206000209050919050565b60006020601f8301049050919050565b600082821b905092915050565b6000600883026116107fffffffffffffffffffffffffffffffffffffffffffffffffffffffffffffffff826115d3565b61161a86836115d3565b95508019841693508086168417925050509392505050565b6000819050919050565b600061165761165261164d84610ef1565b611632565b610ef1565b9050919050565b6000819050919050565b6116718361163c565b61168561167d8261165e565b8484546115e0565b825550505050565b600090565b61169a61168d565b6116a5818484611668565b505050565b5b818110156116c9576116be600082611692565b6001810190506116ab565b5050565b601f82111561170e576116df816115ae565b6116e8846115c3565b810160208510156116f7578190505b61170b611703856115c3565b8301826116aa565b50505b505050565b600082821c905092915050565b600061173160001984600802611713565b1980831691505092915050565b600061174a8383611720565b9150826002028217905092915050565b6117648383611574565b67ffffffffffffffff81111561177d5761177c61157f565b5b611787825461146b565b6117928282856116cd565b6000601f8311600181146117c157600084156117af578287013590505b6117b9858261173e565b865550611821565b601f1984166117cf866115ae565b60005b828110156117f7578489013582556001820191506020850194506020810190506117d2565b868310156118145784890135611810601f891682611720565b8355505b6001600288020188555050505b50505050505050565b7f4e487b7100000000000000000000000000000000000000000000000000000000600052601160045260246000fd5b600061186482610ef1565b91507fffffffffffffffffffffffffffffffffffffffffffffffffffffffffffffffff82036118965761189561182a565b5b600182019050919050565b82818337600083830152505050565b60006118bc8385610f5f565b93506118c98385846118a1565b6118d283610f9a565b840190509392505050565b60006040820190506118f26000830186611055565b81810360208301526119058184866118b0565b905094935050505056fea264697066735822122039043d203201c07f2a8e6f67e6fd40fcf42be7ed129e8dbe2dd93e404283716b64736f6c63430008140033",
  "linkReferences": {},
  "deployedLinkReferences": {}
}