{
  "_format": "hh-sol-artifact-1",
  "contractName": "FileManager",
  "sourceName": "contracts/FileManager.sol",
  "abi": [
    {
      "anonymous": false,
      "inputs": [
        {
          "indexed": false,
          "internalType": "uint256",
          "name": "fileId",
          "type": "uint256"
        },
        {
          "indexed": true,
          "internalType": "address",
          "name": "grantee",
          "type": "address"
        }
      ],
      "name": "AccessGranted",
      "type": "event"
    },
    {
      "anonymous": false,
      "inputs": [
        {
          "indexed": false,
          "internalType": "uint256",
          "name": "fileId",
          "type": "uint256"
        },
        {
          "indexed": true,
          "internalType": "address",
          "name": "revoked",
          "type": "address"
        }
      ],
      "name": "AccessRevoked",
      "type": "event"
    },
    {
      "anonymous": false,
      "inputs": [
        {
          "indexed": false,
          "internalType": "uint256",
          "name": "fileId",
          "type": "uint256"
        },
        {
          "indexed": false,
          "internalType": "uint256",
          "name": "updatedAt",
          "type": "uint256"
        }
      ],
      "name": "FileUpdated",
      "type": "event"
    },
    {
      "anonymous": false,
      "inputs": [
        {
          "indexed": false,
          "internalType": "uint256",
          "name": "fileId",
          "type": "uint256"
        },
        {
          "indexed": true,
          "internalType": "address",
          "name": "owner",
          "type": "address"
        },
        {
          "indexed": false,
          "internalType": "string",
          "name": "cid",
          "type": "string"
        },
        {
          "indexed": false,
          "internalType": "string",
          "name": "filename",
          "type": "string"
        },
        {
          "indexed": false,
          "internalType": "uint256",
          "name": "createdAt",
          "type": "uint256"
        }
      ],
      "name": "FileUploaded",
      "type": "event"
    },
    {
      "inputs": [],
      "name": "fileCount",
      "outputs": [
        {
          "internalType": "uint256",
          "name": "",
          "type": "uint256"
        }
      ],
      "stateMutability": "view",
      "type": "function"
    },
    {
      "inputs": [
        {
          "internalType": "uint256",
          "name": "fileId",
          "type": "uint256"
        }
      ],
      "name": "getFile",
      "outputs": [
        {
          "internalType": "string",
          "name": "filename",
          "type": "string"
        },
        {
          "internalType": "string",
          "name": "cid",
          "type": "string"
        },
        {
          "internalType": "uint256",
          "name": "createdAt",
          "type": "uint256"
        },
        {
          "internalType": "uint256",
          "name": "updatedAt",
          "type": "uint256"
        },
        {
          "internalType": "address",
          "name": "owner",
          "type": "address"
        },
        {
          "internalType": "address[]",
          "name": "grantedAddresses",
          "type": "address[]"
        }
      ],
      "stateMutability": "view",
      "type": "function"
    },
    {
      "inputs": [],
      "name": "getMyFiles",
      "outputs": [
        {
          "internalType": "uint256[]",
          "name": "",
          "type": "uint256[]"
        }
      ],
      "stateMutability": "view",
      "type": "function"
    },
    {
      "inputs": [
        {
          "internalType": "uint256",
          "name": "fileId",
          "type": "uint256"
        },
        {
          "internalType": "address",
          "name": "user",
          "type": "address"
        }
      ],
      "name": "grantAccess",
      "outputs": [],
      "stateMutability": "nonpayable",
      "type": "function"
    },
    {
      "inputs": [
        {
          "internalType": "uint256",
          "name": "fileId",
          "type": "uint256"
        },
        {
          "internalType": "address",
          "name": "user",
          "type": "address"
        }
      ],
      "name": "revokeAccess",
      "outputs": [],
      "stateMutability": "nonpayable",
      "type": "function"
    },
    {
      "inputs": [
        {
          "internalType": "uint256",
          "name": "fileId",
          "type": "uint256"
        },
        {
          "internalType": "string",
          "name": "filename",
          "type": "string"
        }
      ],
      "name": "updateFile",
      "outputs": [],
      "stateMutability": "nonpayable",
      "type": "function"
    },
    {
      "inputs": [
        {
          "internalType": "string",
          "name": "cid",
          "type": "string"
        },
        {
          "internalType": "string",
          "name": "filename",
          "type": "string"
        }
      ],
      "name": "uploadFile",
      "outputs": [],
      "stateMutability": "nonpayable",
      "type": "function"
    }
  ],
  "bytecode": "0x608060405234801561001057600080fd5b506116da806100206000396000f3fe608060405234801561001057600080fd5b506004361061007d5760003560e01c806365dd152c1161005b57806365dd152c146100f157806390a4b0df1461010d578063996d50bf1461012b578063d9a5ec1b146101475761007d565b80632bfda3131461008257806343953519146100b757806364069d1c146100d5575b600080fd5b61009c60048036038101906100979190610c03565b610163565b6040516100ae96959493929190610dce565b60405180910390f35b6100bf6103ba565b6040516100cc9190610e44565b60405180910390f35b6100ef60048036038101906100ea9190610ec4565b6103c0565b005b61010b60048036038101906101069190610f50565b610521565b005b6101156106d4565b604051610122919061104e565b60405180910390f35b61014560048036038101906101409190611070565b610769565b005b610161600480360381019061015c9190610f50565b6108e5565b005b606080600080600060608660025481106101b2576040517f08c379a00000000000000000000000000000000000000000000000000000000081526004016101a99061113d565b60405180910390fd5b60008060008a815260200190815260200160002090508060000181600101826003015483600401548460020160009054906101000a900473ffffffffffffffffffffffffffffffffffffffff168560050185805461020f9061118c565b80601f016020809104026020016040519081016040528092919081815260200182805461023b9061118c565b80156102885780601f1061025d57610100808354040283529160200191610288565b820191906000526020600020905b81548152906001019060200180831161026b57829003601f168201915b5050505050955084805461029b9061118c565b80601f01602080910402602001604051908101604052809291908181526020018280546102c79061118c565b80156103145780601f106102e957610100808354040283529160200191610314565b820191906000526020600020905b8154815290600101906020018083116102f757829003601f168201915b505050505094508080548060200260200160405190810160405280929190818152602001828054801561039c57602002820191906000526020600020905b8160009054906101000a900473ffffffffffffffffffffffffffffffffffffffff1673ffffffffffffffffffffffffffffffffffffffff1681526020019060010190808311610352575b50505050509050975097509750975097509750505091939550919395565b60025481565b8260008082815260200190815260200160002060020160009054906101000a900473ffffffffffffffffffffffffffffffffffffffff1673ffffffffffffffffffffffffffffffffffffffff163373ffffffffffffffffffffffffffffffffffffffff1614610464576040517f08c379a000000000000000000000000000000000000000000000000000000000815260040161045b90611209565b60405180910390fd5b8360025481106104a9576040517f08c379a00000000000000000000000000000000000000000000000000000000081526004016104a09061113d565b60405180910390fd5b6000806000878152602001908152602001600020905084848260000191826104d292919061140f565b504281600401819055507ff7cfca1fce0760baf93d0eb237d781c4575bacdaaa91fc3a10be1da33dc53fd88682600401546040516105119291906114df565b60405180910390a1505050505050565b8160008082815260200190815260200160002060020160009054906101000a900473ffffffffffffffffffffffffffffffffffffffff1673ffffffffffffffffffffffffffffffffffffffff163373ffffffffffffffffffffffffffffffffffffffff16146105c5576040517f08c379a00000000000000000000000000000000000000000000000000000000081526004016105bc90611209565b60405180910390fd5b82600254811061060a576040517f08c379a00000000000000000000000000000000000000000000000000000000081526004016106019061113d565b60405180910390fd5b600080858152602001908152602001600020600501839080600181540180825580915050600190039060005260206000200160009091909190916101000a81548173ffffffffffffffffffffffffffffffffffffffff021916908373ffffffffffffffffffffffffffffffffffffffff1602179055508273ffffffffffffffffffffffffffffffffffffffff167f3c3a9147a1fc73dd51a32f4d10c43d457e8cb826eb6f35cac6349eb965ba82b4856040516106c69190610e44565b60405180910390a250505050565b6060600160003373ffffffffffffffffffffffffffffffffffffffff1673ffffffffffffffffffffffffffffffffffffffff16815260200190815260200160002080548060200260200160405190810160405280929190818152602001828054801561075f57602002820191906000526020600020905b81548152602001906001019080831161074b575b5050505050905090565b6000600254905060008060008381526020019081526020016000209050838382600001918261079992919061140f565b5085858260010191826107ad92919061140f565b50428160030181905550428160040181905550338160020160006101000a81548173ffffffffffffffffffffffffffffffffffffffff021916908373ffffffffffffffffffffffffffffffffffffffff160217905550600160003373ffffffffffffffffffffffffffffffffffffffff1673ffffffffffffffffffffffffffffffffffffffff1681526020019081526020016000208290806001815401808255809150506001900390600052602060002001600090919091909150556002600081548092919061087c90611537565b91905055503373ffffffffffffffffffffffffffffffffffffffff167f605bb54913a350da54403d847a00ab545da92d65d6a52c3d101fe04984cb7a50838888888887600301546040516108d5969594939291906115bb565b60405180910390a2505050505050565b8160008082815260200190815260200160002060020160009054906101000a900473ffffffffffffffffffffffffffffffffffffffff1673ffffffffffffffffffffffffffffffffffffffff163373ffffffffffffffffffffffffffffffffffffffff1614610989576040517f08c379a000000000000000000000000000000000000000000000000000000000815260040161098090611209565b60405180910390fd5b8260025481106109ce576040517f08c379a00000000000000000000000000000000000000000000000000000000081526004016109c59061113d565b60405180910390fd5b6000806000868152602001908152602001600020600501905060005b8180549050811015610b6d578473ffffffffffffffffffffffffffffffffffffffff16828281548110610a2057610a1f611612565b5b9060005260206000200160009054906101000a900473ffffffffffffffffffffffffffffffffffffffff1673ffffffffffffffffffffffffffffffffffffffff1603610b5a578160018380549050610a789190611641565b81548110610a8957610a88611612565b5b9060005260206000200160009054906101000a900473ffffffffffffffffffffffffffffffffffffffff16828281548110610ac757610ac6611612565b5b9060005260206000200160006101000a81548173ffffffffffffffffffffffffffffffffffffffff021916908373ffffffffffffffffffffffffffffffffffffffff16021790555081805480610b2057610b1f611675565b5b6001900381819060005260206000200160006101000a81549073ffffffffffffffffffffffffffffffffffffffff02191690559055610b6d565b8080610b6590611537565b9150506109ea565b508373ffffffffffffffffffffffffffffffffffffffff167f125883b94692baebecad9f111ed97ffa626523bbbadc6b0ef85ee1b56b9e52d586604051610bb49190610e44565b60405180910390a25050505050565b600080fd5b600080fd5b6000819050919050565b610be081610bcd565b8114610beb57600080fd5b50565b600081359050610bfd81610bd7565b92915050565b600060208284031215610c1957610c18610bc3565b5b6000610c2784828501610bee565b91505092915050565b600081519050919050565b600082825260208201905092915050565b60005b83811015610c6a578082015181840152602081019050610c4f565b60008484015250505050565b6000601f19601f8301169050919050565b6000610c9282610c30565b610c9c8185610c3b565b9350610cac818560208601610c4c565b610cb581610c76565b840191505092915050565b610cc981610bcd565b82525050565b600073ffffffffffffffffffffffffffffffffffffffff82169050919050565b6000610cfa82610ccf565b9050919050565b610d0a81610cef565b82525050565b600081519050919050565b600082825260208201905092915050565b6000819050602082019050919050565b610d4581610cef565b82525050565b6000610d578383610d3c565b60208301905092915050565b6000602082019050919050565b6000610d7b82610d10565b610d858185610d1b565b9350610d9083610d2c565b8060005b83811015610dc1578151610da88882610d4b565b9750610db383610d63565b925050600181019050610d94565b5085935050505092915050565b600060c0820190508181036000830152610de88189610c87565b90508181036020830152610dfc8188610c87565b9050610e0b6040830187610cc0565b610e186060830186610cc0565b610e256080830185610d01565b81810360a0830152610e378184610d70565b9050979650505050505050565b6000602082019050610e596000830184610cc0565b92915050565b600080fd5b600080fd5b600080fd5b60008083601f840112610e8457610e83610e5f565b5b8235905067ffffffffffffffff811115610ea157610ea0610e64565b5b602083019150836001820283011115610ebd57610ebc610e69565b5b9250929050565b600080600060408486031215610edd57610edc610bc3565b5b6000610eeb86828701610bee565b935050602084013567ffffffffffffffff811115610f0c57610f0b610bc8565b5b610f1886828701610e6e565b92509250509250925092565b610f2d81610cef565b8114610f3857600080fd5b50565b600081359050610f4a81610f24565b92915050565b60008060408385031215610f6757610f66610bc3565b5b6000610f7585828601610bee565b9250506020610f8685828601610f3b565b9150509250929050565b600081519050919050565b600082825260208201905092915050565b6000819050602082019050919050565b610fc581610bcd565b82525050565b6000610fd78383610fbc565b60208301905092915050565b6000602082019050919050565b6000610ffb82610f90565b6110058185610f9b565b935061101083610fac565b8060005b838110156110415781516110288882610fcb565b975061103383610fe3565b925050600181019050611014565b5085935050505092915050565b600060208201905081810360008301526110688184610ff0565b905092915050565b6000806000806040858703121561108a57611089610bc3565b5b600085013567ffffffffffffffff8111156110a8576110a7610bc8565b5b6110b487828801610e6e565b9450945050602085013567ffffffffffffffff8111156110d7576110d6610bc8565b5b6110e387828801610e6e565b925092505092959194509250565b7f46696c6520646f6573206e6f7420657869737400000000000000000000000000600082015250565b6000611127601383610c3b565b9150611132826110f1565b602082019050919050565b600060208201905081810360008301526111568161111a565b9050919050565b7f4e487b7100000000000000000000000000000000000000000000000000000000600052602260045260246000fd5b600060028204905060018216806111a457607f821691505b6020821081036111b7576111b661115d565b5b50919050565b7f4e6f742066696c65206f776e6572000000000000000000000000000000000000600082015250565b60006111f3600e83610c3b565b91506111fe826111bd565b602082019050919050565b60006020820190508181036000830152611222816111e6565b9050919050565b600082905092915050565b7f4e487b7100000000000000000000000000000000000000000000000000000000600052604160045260246000fd5b60008190508160005260206000209050919050565b60006020601f8301049050919050565b600082821b905092915050565b6000600883026112c57fffffffffffffffffffffffffffffffffffffffffffffffffffffffffffffffff82611288565b6112cf8683611288565b95508019841693508086168417925050509392505050565b6000819050919050565b600061130c61130761130284610bcd565b6112e7565b610bcd565b9050919050565b6000819050919050565b611326836112f1565b61133a61133282611313565b848454611295565b825550505050565b600090565b61134f611342565b61135a81848461131d565b505050565b5b8181101561137e57611373600082611347565b600181019050611360565b5050565b601f8211156113c35761139481611263565b61139d84611278565b810160208510156113ac578190505b6113c06113b885611278565b83018261135f565b50505b505050565b600082821c905092915050565b60006113e6600019846008026113c8565b1980831691505092915050565b60006113ff83836113d5565b9150826002028217905092915050565b6114198383611229565b67ffffffffffffffff81111561143257611431611234565b5b61143c825461118c565b611447828285611382565b6000601f8311600181146114765760008415611464578287013590505b61146e85826113f3565b8655506114d6565b601f19841661148486611263565b60005b828110156114ac57848901358255600182019150602085019450602081019050611487565b868310156114c957848901356114c5601f8916826113d5565b8355505b6001600288020188555050505b50505050505050565b60006040820190506114f46000830185610cc0565b6115016020830184610cc0565b9392505050565b7f4e487b7100000000000000000000000000000000000000000000000000000000600052601160045260246000fd5b600061154282610bcd565b91507fffffffffffffffffffffffffffffffffffffffffffffffffffffffffffffffff820361157457611573611508565b5b600182019050919050565b82818337600083830152505050565b600061159a8385610c3b565b93506115a783858461157f565b6115b083610c76565b840190509392505050565b60006080820190506115d06000830189610cc0565b81810360208301526115e381878961158e565b905081810360408301526115f881858761158e565b90506116076060830184610cc0565b979650505050505050565b7f4e487b7100000000000000000000000000000000000000000000000000000000600052603260045260246000fd5b600061164c82610bcd565b915061165783610bcd565b925082820390508181111561166f5761166e611508565b5b92915050565b7f4e487b7100000000000000000000000000000000000000000000000000000000600052603160045260246000fdfea2646970667358221220c3dfe51c87f52eb35241c2201e3ef0289a7232c07e4f891e6657f70ef18155ed64736f6c63430008140033",
  "linkReferences": {},
  "deployedLinkReferences": {}
}