{
  "_format": "hh-sol-artifact-1",
  "contractName": "UserManager",
  "sourceName": "contracts/UserManager.sol",
  "abi": [
    {
      "anonymous": false,
      "inputs": [
        {
          "indexed": true,
          "internalType": "address",
          "name": "user",
          "type": "address"
        }
      ],
      "name": "UserRegistered",
      "type": "event"
    },
    {
      "inputs": [
        {
          "internalType": "address",
          "name": "user",
          "type": "address"
        }
      ],
      "name": "isRegistered",
      "outputs": [
        {
          "internalType": "bool",
          "name": "",
          "type": "bool"
        }
      ],
      "stateMutability": "view",
      "type": "function"
    },
    {
      "inputs": [],
      "name": "registerUser",
      "outputs": [],
      "stateMutability": "nonpayable",
      "type": "function"
    },
    {
      "inputs": [
        {
          "internalType": "address",
          "name": "",
          "type": "address"
        }
      ],
      "name": "registeredUsers",
      "outputs": [
        {
          "internalType": "bool",
          "name": "",
          "type": "bool"
        }
      ],
      "stateMutability": "view",
      "type": "function"
    }
  ],
  "bytecode": "0x608060405234801561001057600080fd5b506103c6806100206000396000f3fe608060405234801561001057600080fd5b50600436106100415760003560e01c80630e50cee5146100465780634d3820eb14610076578063c3c5a54714610080575b600080fd5b610060600480360381019061005b91906102b0565b6100b0565b60405161006d91906102f8565b60405180910390f35b61007e6100d0565b005b61009a600480360381019061009591906102b0565b6101f8565b6040516100a791906102f8565b60405180910390f35b60006020528060005260406000206000915054906101000a900460ff1681565b6000803373ffffffffffffffffffffffffffffffffffffffff1673ffffffffffffffffffffffffffffffffffffffff16815260200190815260200160002060009054906101000a900460ff161561015c576040517f08c379a000000000000000000000000000000000000000000000000000000000815260040161015390610370565b60405180910390fd5b60016000803373ffffffffffffffffffffffffffffffffffffffff1673ffffffffffffffffffffffffffffffffffffffff16815260200190815260200160002060006101000a81548160ff0219169083151502179055503373ffffffffffffffffffffffffffffffffffffffff167f54db7a5cb4735e1aac1f53db512d3390390bb6637bd30ad4bf9fc98667d9b9b960405160405180910390a2565b60008060008373ffffffffffffffffffffffffffffffffffffffff1673ffffffffffffffffffffffffffffffffffffffff16815260200190815260200160002060009054906101000a900460ff169050919050565b600080fd5b600073ffffffffffffffffffffffffffffffffffffffff82169050919050565b600061027d82610252565b9050919050565b61028d81610272565b811461029857600080fd5b50565b6000813590506102aa81610284565b92915050565b6000602082840312156102c6576102c561024d565b5b60006102d48482850161029b565b91505092915050565b60008115159050919050565b6102f2816102dd565b82525050565b600060208201905061030d60008301846102e9565b92915050565b600082825260208201905092915050565b7f416c726561647920726567697374657265640000000000000000000000000000600082015250565b600061035a601283610313565b915061036582610324565b602082019050919050565b600060208201905081810360008301526103898161034d565b905091905056fea2646970667358221220876cf4c4130cee026761a4434085c3c1652f0b7511b411b1c1f157c9b959e1c964736f6c63430008140033",
  "linkReferences": {},
  "deployedLinkReferences": {}
}